{
  "_format": "hh-sol-artifact-1",
  "contractName": "SecureVault",
  "sourceName": "contracts/SecureVault.sol",
  "abi": [
    {
      "inputs": [
        {
          "internalType": "address",
          "name": "_authManager",
          "type": "address"
        }
      ],
      "stateMutability": "nonpayable",
      "type": "constructor"
    },
    {
      "anonymous": false,
      "inputs": [
        {
          "indexed": true,
          "internalType": "address",
          "name": "sender",
          "type": "address"
        },
        {
          "indexed": false,
          "internalType": "uint256",
          "name": "amount",
          "type": "uint256"
        }
      ],
      "name": "DepositMade",
      "type": "event"
    },
    {
      "anonymous": false,
      "inputs": [
        {
          "indexed": true,
          "internalType": "address",
          "name": "recipient",
          "type": "address"
        },
        {
          "indexed": false,
          "internalType": "uint256",
          "name": "amount",
          "type": "uint256"
        }
      ],
      "name": "WithdrawalMade",
      "type": "event"
    },
    {
      "inputs": [],
      "name": "authManager",
      "outputs": [
        {
          "internalType": "contract AuthorizationManager",
          "name": "",
          "type": "address"
        }
      ],
      "stateMutability": "view",
      "type": "function"
    },
    {
      "inputs": [],
      "name": "deposit",
      "outputs": [],
      "stateMutability": "payable",
      "type": "function"
    },
    {
      "inputs": [
        {
          "internalType": "bytes32",
          "name": "authId",
          "type": "bytes32"
        },
        {
          "internalType": "address",
          "name": "recipient",
          "type": "address"
        },
        {
          "internalType": "uint256",
          "name": "amount",
          "type": "uint256"
        }
      ],
      "name": "withdraw",
      "outputs": [],
      "stateMutability": "nonpayable",
      "type": "function"
    }
  ],
  "bytecode": "0x608060405234801561001057600080fd5b506040516107fd3803806107fd833981810160405281019061003291906100db565b806000806101000a81548173ffffffffffffffffffffffffffffffffffffffff021916908373ffffffffffffffffffffffffffffffffffffffff16021790555050610108565b600080fd5b600073ffffffffffffffffffffffffffffffffffffffff82169050919050565b60006100a88261007d565b9050919050565b6100b88161009d565b81146100c357600080fd5b50565b6000815190506100d5816100af565b92915050565b6000602082840312156100f1576100f0610078565b5b60006100ff848285016100c6565b91505092915050565b6106e6806101176000396000f3fe6080604052600436106100345760003560e01c8063920811b214610039578063a6fb97d114610064578063d0e30db01461008d575b600080fd5b34801561004557600080fd5b5061004e610097565b60405161005b9190610385565b60405180910390f35b34801561007057600080fd5b5061008b6004803603810190610086919061044f565b6100bb565b005b610095610273565b005b60008054906101000a900473ffffffffffffffffffffffffffffffffffffffff1681565b60008054906101000a900473ffffffffffffffffffffffffffffffffffffffff1673ffffffffffffffffffffffffffffffffffffffff16632e012698846040518263ffffffff1660e01b815260040161011491906104b1565b6020604051808303816000875af1158015610133573d6000803e3d6000fd5b505050506040513d601f19601f820116820180604052508101906101579190610504565b610196576040517f08c379a000000000000000000000000000000000000000000000000000000000815260040161018d9061058e565b60405180910390fd5b804710156101d9576040517f08c379a00000000000000000000000000000000000000000000000000000000081526004016101d0906105fa565b60405180910390fd5b8173ffffffffffffffffffffffffffffffffffffffff166108fc829081150290604051600060405180830381858888f1935050505015801561021f573d6000803e3d6000fd5b508173ffffffffffffffffffffffffffffffffffffffff167fbc158bb64f05d6383aea69bbb0b20c1bbf4b7a18f63359c5649b7c39e29d3884826040516102669190610629565b60405180910390a2505050565b600034116102b6576040517f08c379a00000000000000000000000000000000000000000000000000000000081526004016102ad90610690565b60405180910390fd5b3373ffffffffffffffffffffffffffffffffffffffff167fd15c9547ea5c06670c0010ce19bc32d54682a4b3801ece7f3ab0c3f17106b4bb346040516102fc9190610629565b60405180910390a2565b600073ffffffffffffffffffffffffffffffffffffffff82169050919050565b6000819050919050565b600061034b61034661034184610306565b610326565b610306565b9050919050565b600061035d82610330565b9050919050565b600061036f82610352565b9050919050565b61037f81610364565b82525050565b600060208201905061039a6000830184610376565b92915050565b600080fd5b6000819050919050565b6103b8816103a5565b81146103c357600080fd5b50565b6000813590506103d5816103af565b92915050565b60006103e682610306565b9050919050565b6103f6816103db565b811461040157600080fd5b50565b600081359050610413816103ed565b92915050565b6000819050919050565b61042c81610419565b811461043757600080fd5b50565b60008135905061044981610423565b92915050565b600080600060608486031215610468576104676103a0565b5b6000610476868287016103c6565b935050602061048786828701610404565b92505060406104988682870161043a565b9150509250925092565b6104ab816103a5565b82525050565b60006020820190506104c660008301846104a2565b92915050565b60008115159050919050565b6104e1816104cc565b81146104ec57600080fd5b50565b6000815190506104fe816104d8565b92915050565b60006020828403121561051a576105196103a0565b5b6000610528848285016104ef565b91505092915050565b600082825260208201905092915050565b7f496e76616c696420617574686f72697a6174696f6e0000000000000000000000600082015250565b6000610578601583610531565b915061058382610542565b602082019050919050565b600060208201905081810360008301526105a78161056b565b9050919050565b7f496e73756666696369656e742062616c616e6365000000000000000000000000600082015250565b60006105e4601483610531565b91506105ef826105ae565b602082019050919050565b60006020820190508181036000830152610613816105d7565b9050919050565b61062381610419565b82525050565b600060208201905061063e600083018461061a565b92915050565b7f4d7573742073656e642045544800000000000000000000000000000000000000600082015250565b600061067a600d83610531565b915061068582610644565b602082019050919050565b600060208201905081810360008301526106a98161066d565b905091905056fea2646970667358221220d72971736defc6021d2c6863be84bffe3cc64565d53ed868a1addf416dbb6e1b64736f6c63430008140033",
  "linkReferences": {},
  "deployedLinkReferences": {}
}