{
  "_format": "hh3-artifact-1",
  "contractName": "SecureVault",
  "sourceName": "contracts/SecureVault.sol",
  "abi": [
    {
      "inputs": [
        {
          "internalType": "address",
          "name": "_authManager",
          "type": "address"
        }
      ],
      "stateMutability": "nonpayable",
      "type": "constructor"
    },
    {
      "anonymous": false,
      "inputs": [
        {
          "indexed": true,
          "internalType": "address",
          "name": "sender",
          "type": "address"
        },
        {
          "indexed": false,
          "internalType": "uint256",
          "name": "amount",
          "type": "uint256"
        }
      ],
      "name": "Deposit",
      "type": "event"
    },
    {
      "anonymous": false,
      "inputs": [
        {
          "indexed": true,
          "internalType": "address",
          "name": "recipient",
          "type": "address"
        },
        {
          "indexed": false,
          "internalType": "uint256",
          "name": "amount",
          "type": "uint256"
        }
      ],
      "name": "Withdrawal",
      "type": "event"
    },
    {
      "inputs": [],
      "name": "authManager",
      "outputs": [
        {
          "internalType": "contract AuthorizationManager",
          "name": "",
          "type": "address"
        }
      ],
      "stateMutability": "view",
      "type": "function"
    },
    {
      "inputs": [
        {
          "internalType": "address",
          "name": "",
          "type": "address"
        }
      ],
      "name": "balances",
      "outputs": [
        {
          "internalType": "uint256",
          "name": "",
          "type": "uint256"
        }
      ],
      "stateMutability": "view",
      "type": "function"
    },
    {
      "inputs": [
        {
          "internalType": "bytes32",
          "name": "authId",
          "type": "bytes32"
        },
        {
          "internalType": "address",
          "name": "recipient",
          "type": "address"
        },
        {
          "internalType": "uint256",
          "name": "amount",
          "type": "uint256"
        }
      ],
      "name": "withdraw",
      "outputs": [],
      "stateMutability": "nonpayable",
      "type": "function"
    },
    {
      "stateMutability": "payable",
      "type": "receive"
    }
  ],
  "bytecode": "0x608060405234801561000f575f80fd5b50604051610a37380380610a3783398181016040528101906100319190610142565b5f73ffffffffffffffffffffffffffffffffffffffff168173ffffffffffffffffffffffffffffffffffffffff160361009f576040517f08c379a0000000000000000000000000000000000000000000000000000000008152600401610096906101c7565b60405180910390fd5b805f806101000a81548173ffffffffffffffffffffffffffffffffffffffff021916908373ffffffffffffffffffffffffffffffffffffffff160217905550506101e5565b5f80fd5b5f73ffffffffffffffffffffffffffffffffffffffff82169050919050565b5f610111826100e8565b9050919050565b61012181610107565b811461012b575f80fd5b50565b5f8151905061013c81610118565b92915050565b5f60208284031215610157576101566100e4565b5b5f6101648482850161012e565b91505092915050565b5f82825260208201905092915050565b7f496e76616c6964206d616e6167657200000000000000000000000000000000005f82015250565b5f6101b1600f8361016d565b91506101bc8261017d565b602082019050919050565b5f6020820190508181035f8301526101de816101a5565b9050919050565b610845806101f25f395ff3fe608060405260043610610037575f3560e01c806327e235e3146100e3578063920811b21461011f578063a6fb97d114610149576100df565b366100df573460015f3373ffffffffffffffffffffffffffffffffffffffff1673ffffffffffffffffffffffffffffffffffffffff1681526020019081526020015f205f8282546100889190610428565b925050819055503373ffffffffffffffffffffffffffffffffffffffff167fe1fffcc4923d04b559f4d29a8bfc6cda04eb5b0d3c460751c2402c5c5cc9109c346040516100d5919061046a565b60405180910390a2005b5f80fd5b3480156100ee575f80fd5b50610109600480360381019061010491906104e1565b610171565b604051610116919061046a565b60405180910390f35b34801561012a575f80fd5b50610133610186565b6040516101409190610567565b60405180910390f35b348015610154575f80fd5b5061016f600480360381019061016a91906105dd565b6101a9565b005b6001602052805f5260405f205f915090505481565b5f8054906101000a900473ffffffffffffffffffffffffffffffffffffffff1681565b5f8054906101000a900473ffffffffffffffffffffffffffffffffffffffff1673ffffffffffffffffffffffffffffffffffffffff166348d4936684304686866040518663ffffffff1660e01b815260040161020995949392919061064b565b6020604051808303815f875af1158015610225573d5f803e3d5ffd5b505050506040513d601f19601f8201168201806040525081019061024991906106d1565b610288576040517f08c379a000000000000000000000000000000000000000000000000000000000815260040161027f90610756565b60405180910390fd5b8060015f3373ffffffffffffffffffffffffffffffffffffffff1673ffffffffffffffffffffffffffffffffffffffff1681526020019081526020015f20541015610308576040517f08c379a00000000000000000000000000000000000000000000000000000000081526004016102ff906107be565b60405180910390fd5b8060015f3373ffffffffffffffffffffffffffffffffffffffff1673ffffffffffffffffffffffffffffffffffffffff1681526020019081526020015f205f82825461035491906107dc565b925050819055508173ffffffffffffffffffffffffffffffffffffffff166108fc8290811502906040515f60405180830381858888f1935050505015801561039e573d5f803e3d5ffd5b508173ffffffffffffffffffffffffffffffffffffffff167f7fcf532c15f0a6db0bd6d0e038bea71d30d808c7d98cb3bf7268a95bf5081b65826040516103e5919061046a565b60405180910390a2505050565b5f819050919050565b7f4e487b71000000000000000000000000000000000000000000000000000000005f52601160045260245ffd5b5f610432826103f2565b915061043d836103f2565b9250828201905080821115610455576104546103fb565b5b92915050565b610464816103f2565b82525050565b5f60208201905061047d5f83018461045b565b92915050565b5f80fd5b5f73ffffffffffffffffffffffffffffffffffffffff82169050919050565b5f6104b082610487565b9050919050565b6104c0816104a6565b81146104ca575f80fd5b50565b5f813590506104db816104b7565b92915050565b5f602082840312156104f6576104f5610483565b5b5f610503848285016104cd565b91505092915050565b5f819050919050565b5f61052f61052a61052584610487565b61050c565b610487565b9050919050565b5f61054082610515565b9050919050565b5f61055182610536565b9050919050565b61056181610547565b82525050565b5f60208201905061057a5f830184610558565b92915050565b5f819050919050565b61059281610580565b811461059c575f80fd5b50565b5f813590506105ad81610589565b92915050565b6105bc816103f2565b81146105c6575f80fd5b50565b5f813590506105d7816105b3565b92915050565b5f805f606084860312156105f4576105f3610483565b5b5f6106018682870161059f565b9350506020610612868287016104cd565b9250506040610623868287016105c9565b9150509250925092565b61063681610580565b82525050565b610645816104a6565b82525050565b5f60a08201905061065e5f83018861062d565b61066b602083018761063c565b610678604083018661045b565b610685606083018561063c565b610692608083018461045b565b9695505050505050565b5f8115159050919050565b6106b08161069c565b81146106ba575f80fd5b50565b5f815190506106cb816106a7565b92915050565b5f602082840312156106e6576106e5610483565b5b5f6106f3848285016106bd565b91505092915050565b5f82825260208201905092915050565b7f417574686f72697a6174696f6e206661696c65640000000000000000000000005f82015250565b5f6107406014836106fc565b915061074b8261070c565b602082019050919050565b5f6020820190508181035f83015261076d81610734565b9050919050565b7f496e73756666696369656e742062616c616e63650000000000000000000000005f82015250565b5f6107a86014836106fc565b91506107b382610774565b602082019050919050565b5f6020820190508181035f8301526107d58161079c565b9050919050565b5f6107e6826103f2565b91506107f1836103f2565b9250828203905081811115610809576108086103fb565b5b9291505056fea264697066735822122032c5c0f047fd28147fc7bc91910022e86736c2778b69f893ebe94b889f86a86064736f6c63430008140033",
  "linkReferences": {},
  "deployedLinkReferences": {},
  "immutableReferences": {},
  "inputSourceName": "project/contracts/SecureVault.sol",
  "buildInfoId": "solc-0_8_20-9e8bda63765c4b4ef0026fdfabe2aa6bcb2ca0d9"
}