{
  "_format": "hh3-artifact-1",
  "contractName": "AuthorizationManager",
  "sourceName": "contracts/AuthorizationManager.sol",
  "abi": [
    {
      "anonymous": false,
      "inputs": [
        {
          "indexed": true,
          "internalType": "bytes32",
          "name": "authId",
          "type": "bytes32"
        }
      ],
      "name": "AuthorizationConsumed",
      "type": "event"
    },
    {
      "inputs": [
        {
          "internalType": "bytes32",
          "name": "",
          "type": "bytes32"
        }
      ],
      "name": "usedAuthorizations",
      "outputs": [
        {
          "internalType": "bool",
          "name": "",
          "type": "bool"
        }
      ],
      "stateMutability": "view",
      "type": "function"
    },
    {
      "inputs": [
        {
          "internalType": "bytes32",
          "name": "authId",
          "type": "bytes32"
        },
        {
          "internalType": "address",
          "name": "vault",
          "type": "address"
        },
        {
          "internalType": "uint256",
          "name": "chainId",
          "type": "uint256"
        },
        {
          "internalType": "address",
          "name": "recipient",
          "type": "address"
        },
        {
          "internalType": "uint256",
          "name": "amount",
          "type": "uint256"
        }
      ],
      "name": "validate",
      "outputs": [
        {
          "internalType": "bool",
          "name": "",
          "type": "bool"
        }
      ],
      "stateMutability": "nonpayable",
      "type": "function"
    }
  ],
  "bytecode": "0x608060405234801561000f575f80fd5b506106bb8061001d5f395ff3fe608060405234801561000f575f80fd5b5060043610610034575f3560e01c806348d4936614610038578063d5a1780b14610068575b5f80fd5b610052600480360381019061004d9190610398565b610098565b60405161005f9190610429565b60405180910390f35b610082600480360381019061007d9190610442565b6102b8565b60405161008f9190610429565b60405180910390f35b5f805f8781526020019081526020015f205f9054906101000a900460ff16156100f6576040517f08c379a00000000000000000000000000000000000000000000000000000000081526004016100ed906104c7565b60405180910390fd5b5f73ffffffffffffffffffffffffffffffffffffffff168573ffffffffffffffffffffffffffffffffffffffff1603610164576040517f08c379a000000000000000000000000000000000000000000000000000000000815260040161015b9061052f565b60405180910390fd5b4684146101a6576040517f08c379a000000000000000000000000000000000000000000000000000000000815260040161019d90610597565b60405180910390fd5b5f73ffffffffffffffffffffffffffffffffffffffff168373ffffffffffffffffffffffffffffffffffffffff1603610214576040517f08c379a000000000000000000000000000000000000000000000000000000000815260040161020b906105ff565b60405180910390fd5b5f8211610256576040517f08c379a000000000000000000000000000000000000000000000000000000000815260040161024d90610667565b60405180910390fd5b60015f808881526020019081526020015f205f6101000a81548160ff021916908315150217905550857f2fbd4058f7ad4120f56d7324455176d5e50cd2a663c5d0fa0e80f99ed2f4911b60405160405180910390a26001905095945050505050565b5f602052805f5260405f205f915054906101000a900460ff1681565b5f80fd5b5f819050919050565b6102ea816102d8565b81146102f4575f80fd5b50565b5f81359050610305816102e1565b92915050565b5f73ffffffffffffffffffffffffffffffffffffffff82169050919050565b5f6103348261030b565b9050919050565b6103448161032a565b811461034e575f80fd5b50565b5f8135905061035f8161033b565b92915050565b5f819050919050565b61037781610365565b8114610381575f80fd5b50565b5f813590506103928161036e565b92915050565b5f805f805f60a086880312156103b1576103b06102d4565b5b5f6103be888289016102f7565b95505060206103cf88828901610351565b94505060406103e088828901610384565b93505060606103f188828901610351565b925050608061040288828901610384565b9150509295509295909350565b5f8115159050919050565b6104238161040f565b82525050565b5f60208201905061043c5f83018461041a565b92915050565b5f60208284031215610457576104566102d4565b5b5f610464848285016102f7565b91505092915050565b5f82825260208201905092915050565b7f417574686f72697a6174696f6e20616c726561647920757365640000000000005f82015250565b5f6104b1601a8361046d565b91506104bc8261047d565b602082019050919050565b5f6020820190508181035f8301526104de816104a5565b9050919050565b7f496e76616c6964207661756c74000000000000000000000000000000000000005f82015250565b5f610519600d8361046d565b9150610524826104e5565b602082019050919050565b5f6020820190508181035f8301526105468161050d565b9050919050565b7f57726f6e67206e6574776f726b000000000000000000000000000000000000005f82015250565b5f610581600d8361046d565b915061058c8261054d565b602082019050919050565b5f6020820190508181035f8301526105ae81610575565b9050919050565b7f496e76616c696420726563697069656e740000000000000000000000000000005f82015250565b5f6105e960118361046d565b91506105f4826105b5565b602082019050919050565b5f6020820190508181035f830152610616816105dd565b9050919050565b7f496e76616c696420616d6f756e740000000000000000000000000000000000005f82015250565b5f610651600e8361046d565b915061065c8261061d565b602082019050919050565b5f6020820190508181035f83015261067e81610645565b905091905056fea26469706673582212208760f0ff67f5ada3cd2d06ea046aa116c0661366efe0859be2b7600a9623f3db64736f6c63430008140033",
  "linkReferences": {},
  "deployedLinkReferences": {},
  "immutableReferences": {},
  "inputSourceName": "project/contracts/AuthorizationManager.sol",
  "buildInfoId": "solc-0_8_20-9e8bda63765c4b4ef0026fdfabe2aa6bcb2ca0d9"
}