{
  "_format": "hh-sol-artifact-1",
  "contractName": "AuthorizationManager",
  "sourceName": "contracts/AuthorizationManager.sol",
  "abi": [
    {
      "anonymous": false,
      "inputs": [
        {
          "indexed": true,
          "internalType": "bytes32",
          "name": "authId",
          "type": "bytes32"
        }
      ],
      "name": "AuthorizationUsed",
      "type": "event"
    },
    {
      "inputs": [
        {
          "internalType": "bytes32",
          "name": "",
          "type": "bytes32"
        }
      ],
      "name": "usedAuthorizations",
      "outputs": [
        {
          "internalType": "bool",
          "name": "",
          "type": "bool"
        }
      ],
      "stateMutability": "view",
      "type": "function"
    },
    {
      "inputs": [
        {
          "internalType": "bytes32",
          "name": "authId",
          "type": "bytes32"
        }
      ],
      "name": "validate",
      "outputs": [
        {
          "internalType": "bool",
          "name": "",
          "type": "bool"
        }
      ],
      "stateMutability": "nonpayable",
      "type": "function"
    }
  ],
  "bytecode": "0x608060405234801561001057600080fd5b506102cf806100206000396000f3fe608060405234801561001057600080fd5b50600436106100365760003560e01c80632e0126981461003b578063d5a1780b1461006b575b600080fd5b610055600480360381019061005091906101b9565b61009b565b6040516100629190610201565b60405180910390f35b610085600480360381019061008091906101b9565b61015e565b6040516100929190610201565b60405180910390f35b600080600083815260200190815260200160002060009054906101000a900460ff16156100fd576040517f08c379a00000000000000000000000000000000000000000000000000000000081526004016100f490610279565b60405180910390fd5b600160008084815260200190815260200160002060006101000a81548160ff021916908315150217905550817fd2059d4f35bc78bfc0c2688ce24a013cb4a6a1345059a9db8a4c31d13ec302b560405160405180910390a260019050919050565b60006020528060005260406000206000915054906101000a900460ff1681565b600080fd5b6000819050919050565b61019681610183565b81146101a157600080fd5b50565b6000813590506101b38161018d565b92915050565b6000602082840312156101cf576101ce61017e565b5b60006101dd848285016101a4565b91505092915050565b60008115159050919050565b6101fb816101e6565b82525050565b600060208201905061021660008301846101f2565b92915050565b600082825260208201905092915050565b7f417574686f72697a6174696f6e20616c72656164792075736564000000000000600082015250565b6000610263601a8361021c565b915061026e8261022d565b602082019050919050565b6000602082019050818103600083015261029281610256565b905091905056fea2646970667358221220ca46e14753d5f1e023cdfed11608ad6ce6b68291d89c26b78b92a37a59ed3bef64736f6c63430008140033",
  "linkReferences": {},
  "deployedLinkReferences": {}
}